{
  "contractName": "BadBoy",
  "abi": [
    {
      "constant": false,
      "inputs": [
        {
          "name": "token",
          "type": "address"
        }
      ],
      "name": "finishMinting",
      "outputs": [],
      "payable": true,
      "stateMutability": "payable",
      "type": "function"
    }
  ],
  "bytecode": "0x608060405234801561001057600080fd5b5061014b806100206000396000f300608060405260043610610041576000357c0100000000000000000000000000000000000000000000000000000000900463ffffffff1680637619220014610046575b600080fd5b61007a600480360381019080803573ffffffffffffffffffffffffffffffffffffffff16906020019092919050505061007c565b005b8073ffffffffffffffffffffffffffffffffffffffff16637d64bcb46040518163ffffffff167c0100000000000000000000000000000000000000000000000000000000028152600401602060405180830381600087803b1580156100e057600080fd5b505af11580156100f4573d6000803e3d6000fd5b505050506040513d602081101561010a57600080fd5b810190808051906020019092919050505050505600a165627a7a723058201ed66b79534e654a8a114f20c3288d27e3e4af9bffe82ce5f6634419a5413c890029",
  "source": "pragma solidity 0.4.23;\n\nimport \"../../zeppelin-solidity/contracts/token/ERC20/MintableToken.sol\";\n\n\ncontract BadBoy {\n\n    function finishMinting(MintableToken token) public payable {\n        token.finishMinting();\n    }\n\n}\n",
  "sourcePath": "/usr/home/gerard/Projekte/Solidity/ORS/ors-ico/contracts/mocks/BadBoy.sol",
  "compiler": {
    "name": "solc",
    "version": "0.4.23+commit.124ca40d.Emscripten.clang"
  },
  "schemaVersion": "2.0.0",
  "updatedAt": "2018-05-02T23:44:37.412Z"
}