{
  "contractName": "CallableMock",
  "abi": [
    {
      "constant": true,
      "inputs": [],
      "name": "lastArgument",
      "outputs": [
        {
          "name": "",
          "type": "uint256"
        }
      ],
      "payable": false,
      "stateMutability": "view",
      "type": "function"
    },
    {
      "constant": true,
      "inputs": [],
      "name": "lastMsgValue",
      "outputs": [
        {
          "name": "",
          "type": "uint256"
        }
      ],
      "payable": false,
      "stateMutability": "view",
      "type": "function"
    },
    {
      "constant": true,
      "inputs": [],
      "name": "lastMsgSender",
      "outputs": [
        {
          "name": "",
          "type": "address"
        }
      ],
      "payable": false,
      "stateMutability": "view",
      "type": "function"
    },
    {
      "constant": false,
      "inputs": [
        {
          "name": "argument",
          "type": "uint256"
        }
      ],
      "name": "callback",
      "outputs": [],
      "payable": true,
      "stateMutability": "payable",
      "type": "function"
    }
  ],
  "bytecode": "0x608060405234801561001057600080fd5b506101e2806100206000396000f300608060405260043610610062576000357c0100000000000000000000000000000000000000000000000000000000900463ffffffff16806308d2c64114610067578063463d1fca14610092578063ed606af4146100bd578063ff585caf14610114575b600080fd5b34801561007357600080fd5b5061007c610134565b6040518082815260200191505060405180910390f35b34801561009e57600080fd5b506100a761013a565b6040518082815260200191505060405180910390f35b3480156100c957600080fd5b506100d2610140565b604051808273ffffffffffffffffffffffffffffffffffffffff1673ffffffffffffffffffffffffffffffffffffffff16815260200191505060405180910390f35b61013260048036038101908080359060200190929190505050610165565b005b60025481565b60015481565b6000809054906101000a900473ffffffffffffffffffffffffffffffffffffffff1681565b336000806101000a81548173ffffffffffffffffffffffffffffffffffffffff021916908373ffffffffffffffffffffffffffffffffffffffff1602179055503460018190555080600281905550505600a165627a7a7230582051e70406fb538e0547541ccc57398151cbfec5b6e9847276d11c2daf3c2da0740029",
  "source": "pragma solidity 0.4.23;\n\n\n// This is for testing purposes.\ncontract CallableMock {\n\n    address public lastMsgSender;\n    uint public lastMsgValue;\n    uint public lastArgument;\n\n    function callback(uint argument) public payable {\n        lastMsgSender = msg.sender;\n        lastMsgValue = msg.value;\n        lastArgument = argument;\n    }\n\n}\n",
  "sourcePath": "/usr/home/gerard/Projekte/Solidity/ORS/ors-ico/contracts/mocks/CallableMock.sol",
  "compiler": {
    "name": "solc",
    "version": "0.4.23+commit.124ca40d.Emscripten.clang"
  },
  "schemaVersion": "2.0.0",
  "updatedAt": "2018-05-04T15:17:38.272Z"
}