{
  "contractName": "KYCBaseTester",
  "abi": [
    {
      "constant": true,
      "inputs": [
        {
          "name": "",
          "type": "address"
        }
      ],
      "name": "isKycSigner",
      "outputs": [
        {
          "name": "",
          "type": "bool"
        }
      ],
      "payable": false,
      "stateMutability": "view",
      "type": "function"
    },
    {
      "constant": true,
      "inputs": [
        {
          "name": "",
          "type": "uint64"
        }
      ],
      "name": "alreadyPayed",
      "outputs": [
        {
          "name": "",
          "type": "uint256"
        }
      ],
      "payable": false,
      "stateMutability": "view",
      "type": "function"
    },
    {
      "constant": false,
      "inputs": [
        {
          "name": "buyerAddress",
          "type": "address"
        },
        {
          "name": "buyerId",
          "type": "uint64"
        },
        {
          "name": "maxAmount",
          "type": "uint256"
        },
        {
          "name": "v",
          "type": "uint8"
        },
        {
          "name": "r",
          "type": "bytes32"
        },
        {
          "name": "s",
          "type": "bytes32"
        }
      ],
      "name": "buyTokensFor",
      "outputs": [
        {
          "name": "",
          "type": "bool"
        }
      ],
      "payable": true,
      "stateMutability": "payable",
      "type": "function"
    },
    {
      "constant": false,
      "inputs": [
        {
          "name": "buyerId",
          "type": "uint64"
        },
        {
          "name": "maxAmount",
          "type": "uint256"
        },
        {
          "name": "v",
          "type": "uint8"
        },
        {
          "name": "r",
          "type": "bytes32"
        },
        {
          "name": "s",
          "type": "bytes32"
        }
      ],
      "name": "buyTokens",
      "outputs": [
        {
          "name": "",
          "type": "bool"
        }
      ],
      "payable": true,
      "stateMutability": "payable",
      "type": "function"
    },
    {
      "inputs": [
        {
          "name": "signers",
          "type": "address[]"
        }
      ],
      "payable": false,
      "stateMutability": "nonpayable",
      "type": "constructor"
    },
    {
      "payable": false,
      "stateMutability": "nonpayable",
      "type": "fallback"
    },
    {
      "anonymous": false,
      "inputs": [
        {
          "indexed": false,
          "name": "buyer",
          "type": "address"
        }
      ],
      "name": "ReleaseTokensToCalled",
      "type": "event"
    },
    {
      "anonymous": false,
      "inputs": [
        {
          "indexed": false,
          "name": "buyer",
          "type": "address"
        },
        {
          "indexed": false,
          "name": "returnValue",
          "type": "bool"
        }
      ],
      "name": "SenderAllowedForCalled",
      "type": "event"
    },
    {
      "anonymous": false,
      "inputs": [
        {
          "indexed": true,
          "name": "signer",
          "type": "address"
        },
        {
          "indexed": false,
          "name": "buyerAddress",
          "type": "address"
        },
        {
          "indexed": false,
          "name": "buyerId",
          "type": "uint64"
        },
        {
          "indexed": false,
          "name": "maxAmount",
          "type": "uint256"
        }
      ],
      "name": "KycVerified",
      "type": "event"
    }
  ],
  "bytecode": "0x608060405234801561001057600080fd5b50604051610834380380610834833981018060405281019080805182019291905050508060008090505b81518110156100be576001600080848481518110151561005657fe5b9060200190602002015173ffffffffffffffffffffffffffffffffffffffff1673ffffffffffffffffffffffffffffffffffffffff16815260200190815260200160002060006101000a81548160ff021916908315150217905550808060010191505061003a565b505050610764806100d06000396000f300608060405260043610610062576000357c0100000000000000000000000000000000000000000000000000000000900463ffffffff1680630570d568146100745780639a359d8e146100cf578063ae4578351461011a578063dee4b246146101af575b34801561006e57600080fd5b50600080fd5b34801561008057600080fd5b506100b5600480360381019080803573ffffffffffffffffffffffffffffffffffffffff169060200190929190505050610224565b604051808215151515815260200191505060405180910390f35b3480156100db57600080fd5b50610104600480360381019080803567ffffffffffffffff169060200190929190505050610244565b6040518082815260200191505060405180910390f35b610195600480360381019080803573ffffffffffffffffffffffffffffffffffffffff169060200190929190803567ffffffffffffffff16906020019092919080359060200190929190803560ff1690602001909291908035600019169060200190929190803560001916906020019092919050505061025c565b604051808215151515815260200191505060405180910390f35b61020a600480360381019080803567ffffffffffffffff16906020019092919080359060200190929190803560ff1690602001909291908035600019169060200190929190803560001916906020019092919050505061028c565b604051808215151515815260200191505060405180910390f35b60006020528060005260406000206000915054906101000a900460ff1681565b60016020528060005260406000206000915090505481565b6000610267876102a7565b151561027257600080fd5b61028087878787878761032d565b90509695505050505050565b600061029c33878787878761032d565b905095945050505050565b6000806102b383610676565b90507f24105f77b12b6bf169bce74cc3948a128f2ed36434f478b3f7c691622ce88d448382604051808373ffffffffffffffffffffffffffffffffffffffff1673ffffffffffffffffffffffffffffffffffffffff168152602001821515151581526020019250505060405180910390a180915050919050565b6000806000806002308b8b8b60405180807f4569646f6f2069636f656e67696e6520617574686f72697a6174696f6e000000815250601d018573ffffffffffffffffffffffffffffffffffffffff1673ffffffffffffffffffffffffffffffffffffffff166c010000000000000000000000000281526014018473ffffffffffffffffffffffffffffffffffffffff1673ffffffffffffffffffffffffffffffffffffffff166c010000000000000000000000000281526014018367ffffffffffffffff1667ffffffffffffffff1678010000000000000000000000000000000000000000000000000281526008018281526020019450505050506020604051808303816000865af1158015610447573d6000803e3d6000fd5b5050506040513d602081101561045c57600080fd5b81019080805190602001909291905050509250600183888888604051600081526020016040526040518085600019166000191681526020018460ff1660ff1681526020018360001916600019168152602001826000191660001916815260200194505050505060206040516020810390808403906000865af11580156104e6573d6000803e3d6000fd5b5050506020604051035191506000808373ffffffffffffffffffffffffffffffffffffffff1673ffffffffffffffffffffffffffffffffffffffff16815260200190815260200160002060009054906101000a900460ff16151561054957600080fd5b61058334600160008c67ffffffffffffffff1667ffffffffffffffff168152602001908152602001600020546106ae90919063ffffffff16565b905087811115151561059457600080fd5b80600160008b67ffffffffffffffff1667ffffffffffffffff168152602001908152602001600020819055508173ffffffffffffffffffffffffffffffffffffffff167f74e336db80b339721548db3209451cf01bd48e4a996e1bcea7f1a2abf8b060708b8b8b604051808473ffffffffffffffffffffffffffffffffffffffff1673ffffffffffffffffffffffffffffffffffffffff1681526020018367ffffffffffffffff1667ffffffffffffffff168152602001828152602001935050505060405180910390a26106678a6106ca565b93505050509695505050505050565b60003373ffffffffffffffffffffffffffffffffffffffff168273ffffffffffffffffffffffffffffffffffffffff16149050919050565b600081830190508281101515156106c157fe5b80905092915050565b60007ff271eccbc9b8fc837df07d8c89bb8a6b3abf390de59bd2b0d8dd0f5a8a0efb7e82604051808273ffffffffffffffffffffffffffffffffffffffff1673ffffffffffffffffffffffffffffffffffffffff16815260200191505060405180910390a1600190509190505600a165627a7a72305820bf5d2171793fe1909a7f59f09abf3536bb9b8efa35dd6ce924a533dff34c186f0029",
  "source": "pragma solidity ^0.4.19;\n\nimport \"./KYCBase.sol\";\n\n// this is for testing purpose, do not use it in production\ncontract KYCBaseTester is KYCBase {\n\n    event ReleaseTokensToCalled(address buyer);\n    event SenderAllowedForCalled(address buyer, bool returnValue);\n\n    function KYCBaseTester(address [] signers) public\n        KYCBase(signers)\n    {}\n\n    function releaseTokensTo(address buyer) internal returns(bool) {\n        ReleaseTokensToCalled(buyer);\n        return true;\n    }\n\n    function senderAllowedFor(address buyer)\n        internal view returns(bool)\n    {\n        bool value = super.senderAllowedFor(buyer);\n        SenderAllowedForCalled(buyer, value);\n        return value;\n    }\n}",
  "sourcePath": "/usr/home/gerard/Projekte/Solidity/ORS/ors-ico/contracts/eidoo/KYCBaseTester.sol",
  "compiler": {
    "name": "solc",
    "version": "0.4.23+commit.124ca40d.Emscripten.clang"
  },
  "schemaVersion": "2.0.0",
  "updatedAt": "2018-05-02T15:01:16.459Z"
}