{
  "contractName": "ORSTokenSale",
  "abi": [
    {
      "constant": true,
      "inputs": [
        {
          "name": "",
          "type": "address"
        }
      ],
      "name": "isKycSigner",
      "outputs": [
        {
          "name": "",
          "type": "bool"
        }
      ],
      "payable": false,
      "stateMutability": "view",
      "type": "function"
    },
    {
      "constant": true,
      "inputs": [],
      "name": "companyWallet",
      "outputs": [
        {
          "name": "",
          "type": "address"
        }
      ],
      "payable": false,
      "stateMutability": "view",
      "type": "function"
    },
    {
      "constant": true,
      "inputs": [],
      "name": "rate",
      "outputs": [
        {
          "name": "",
          "type": "uint256"
        }
      ],
      "payable": false,
      "stateMutability": "view",
      "type": "function"
    },
    {
      "constant": true,
      "inputs": [],
      "name": "eidooSigner",
      "outputs": [
        {
          "name": "",
          "type": "address"
        }
      ],
      "payable": false,
      "stateMutability": "view",
      "type": "function"
    },
    {
      "constant": true,
      "inputs": [],
      "name": "closingTime",
      "outputs": [
        {
          "name": "",
          "type": "uint256"
        }
      ],
      "payable": false,
      "stateMutability": "view",
      "type": "function"
    },
    {
      "constant": true,
      "inputs": [],
      "name": "COMPANY_CAP",
      "outputs": [
        {
          "name": "",
          "type": "uint256"
        }
      ],
      "payable": false,
      "stateMutability": "view",
      "type": "function"
    },
    {
      "constant": true,
      "inputs": [],
      "name": "wallet",
      "outputs": [
        {
          "name": "",
          "type": "address"
        }
      ],
      "payable": false,
      "stateMutability": "view",
      "type": "function"
    },
    {
      "constant": true,
      "inputs": [],
      "name": "teamWallet",
      "outputs": [
        {
          "name": "",
          "type": "address"
        }
      ],
      "payable": false,
      "stateMutability": "view",
      "type": "function"
    },
    {
      "constant": true,
      "inputs": [],
      "name": "advisorsWallet",
      "outputs": [
        {
          "name": "",
          "type": "address"
        }
      ],
      "payable": false,
      "stateMutability": "view",
      "type": "function"
    },
    {
      "constant": true,
      "inputs": [],
      "name": "ADVISORS_CAP",
      "outputs": [
        {
          "name": "",
          "type": "uint256"
        }
      ],
      "payable": false,
      "stateMutability": "view",
      "type": "function"
    },
    {
      "constant": true,
      "inputs": [],
      "name": "isFinalized",
      "outputs": [
        {
          "name": "",
          "type": "bool"
        }
      ],
      "payable": false,
      "stateMutability": "view",
      "type": "function"
    },
    {
      "constant": true,
      "inputs": [],
      "name": "owner",
      "outputs": [
        {
          "name": "",
          "type": "address"
        }
      ],
      "payable": false,
      "stateMutability": "view",
      "type": "function"
    },
    {
      "constant": true,
      "inputs": [],
      "name": "bonusRemaining",
      "outputs": [
        {
          "name": "",
          "type": "uint256"
        }
      ],
      "payable": false,
      "stateMutability": "view",
      "type": "function"
    },
    {
      "constant": true,
      "inputs": [
        {
          "name": "",
          "type": "uint64"
        }
      ],
      "name": "alreadyPayed",
      "outputs": [
        {
          "name": "",
          "type": "uint256"
        }
      ],
      "payable": false,
      "stateMutability": "view",
      "type": "function"
    },
    {
      "constant": true,
      "inputs": [],
      "name": "presaleRemaining",
      "outputs": [
        {
          "name": "",
          "type": "uint256"
        }
      ],
      "payable": false,
      "stateMutability": "view",
      "type": "function"
    },
    {
      "constant": true,
      "inputs": [],
      "name": "TEAM_CAP",
      "outputs": [
        {
          "name": "",
          "type": "uint256"
        }
      ],
      "payable": false,
      "stateMutability": "view",
      "type": "function"
    },
    {
      "constant": false,
      "inputs": [
        {
          "name": "buyerAddress",
          "type": "address"
        },
        {
          "name": "buyerId",
          "type": "uint64"
        },
        {
          "name": "maxAmount",
          "type": "uint256"
        },
        {
          "name": "v",
          "type": "uint8"
        },
        {
          "name": "r",
          "type": "bytes32"
        },
        {
          "name": "s",
          "type": "bytes32"
        }
      ],
      "name": "buyTokensFor",
      "outputs": [
        {
          "name": "",
          "type": "bool"
        }
      ],
      "payable": true,
      "stateMutability": "payable",
      "type": "function"
    },
    {
      "constant": true,
      "inputs": [],
      "name": "MAINSALE_CAP",
      "outputs": [
        {
          "name": "",
          "type": "uint256"
        }
      ],
      "payable": false,
      "stateMutability": "view",
      "type": "function"
    },
    {
      "constant": true,
      "inputs": [],
      "name": "openingTime",
      "outputs": [
        {
          "name": "",
          "type": "uint256"
        }
      ],
      "payable": false,
      "stateMutability": "view",
      "type": "function"
    },
    {
      "constant": true,
      "inputs": [],
      "name": "PRESALE_CAP",
      "outputs": [
        {
          "name": "",
          "type": "uint256"
        }
      ],
      "payable": false,
      "stateMutability": "view",
      "type": "function"
    },
    {
      "constant": true,
      "inputs": [],
      "name": "BONUS_CAP",
      "outputs": [
        {
          "name": "",
          "type": "uint256"
        }
      ],
      "payable": false,
      "stateMutability": "view",
      "type": "function"
    },
    {
      "constant": false,
      "inputs": [
        {
          "name": "buyerId",
          "type": "uint64"
        },
        {
          "name": "maxAmount",
          "type": "uint256"
        },
        {
          "name": "v",
          "type": "uint8"
        },
        {
          "name": "r",
          "type": "bytes32"
        },
        {
          "name": "s",
          "type": "bytes32"
        }
      ],
      "name": "buyTokens",
      "outputs": [
        {
          "name": "",
          "type": "bool"
        }
      ],
      "payable": true,
      "stateMutability": "payable",
      "type": "function"
    },
    {
      "constant": true,
      "inputs": [],
      "name": "mainsaleRemaining",
      "outputs": [
        {
          "name": "",
          "type": "uint256"
        }
      ],
      "payable": false,
      "stateMutability": "view",
      "type": "function"
    },
    {
      "constant": false,
      "inputs": [
        {
          "name": "newOwner",
          "type": "address"
        }
      ],
      "name": "transferOwnership",
      "outputs": [],
      "payable": false,
      "stateMutability": "nonpayable",
      "type": "function"
    },
    {
      "constant": true,
      "inputs": [],
      "name": "token",
      "outputs": [
        {
          "name": "",
          "type": "address"
        }
      ],
      "payable": false,
      "stateMutability": "view",
      "type": "function"
    },
    {
      "inputs": [
        {
          "name": "_token",
          "type": "address"
        },
        {
          "name": "_rate",
          "type": "uint256"
        },
        {
          "name": "_openingTime",
          "type": "uint256"
        },
        {
          "name": "_closingTime",
          "type": "uint256"
        },
        {
          "name": "_wallet",
          "type": "address"
        },
        {
          "name": "_teamWallet",
          "type": "address"
        },
        {
          "name": "_companyWallet",
          "type": "address"
        },
        {
          "name": "_advisorsWallet",
          "type": "address"
        },
        {
          "name": "_kycSigners",
          "type": "address[]"
        }
      ],
      "payable": false,
      "stateMutability": "nonpayable",
      "type": "constructor"
    },
    {
      "payable": false,
      "stateMutability": "nonpayable",
      "type": "fallback"
    },
    {
      "anonymous": false,
      "inputs": [
        {
          "indexed": false,
          "name": "newRate",
          "type": "uint256"
        }
      ],
      "name": "RateChanged",
      "type": "event"
    },
    {
      "anonymous": false,
      "inputs": [
        {
          "indexed": true,
          "name": "buyer",
          "type": "address"
        },
        {
          "indexed": false,
          "name": "value",
          "type": "uint256"
        },
        {
          "indexed": false,
          "name": "tokens",
          "type": "uint256"
        }
      ],
      "name": "TokenPurchased",
      "type": "event"
    },
    {
      "anonymous": false,
      "inputs": [
        {
          "indexed": true,
          "name": "buyer",
          "type": "address"
        },
        {
          "indexed": false,
          "name": "value",
          "type": "uint256"
        }
      ],
      "name": "BuyerRefunded",
      "type": "event"
    },
    {
      "anonymous": false,
      "inputs": [],
      "name": "Finalized",
      "type": "event"
    },
    {
      "anonymous": false,
      "inputs": [
        {
          "indexed": true,
          "name": "previousOwner",
          "type": "address"
        },
        {
          "indexed": true,
          "name": "newOwner",
          "type": "address"
        }
      ],
      "name": "OwnershipTransferred",
      "type": "event"
    },
    {
      "anonymous": false,
      "inputs": [
        {
          "indexed": true,
          "name": "signer",
          "type": "address"
        },
        {
          "indexed": false,
          "name": "buyerAddress",
          "type": "address"
        },
        {
          "indexed": false,
          "name": "buyerId",
          "type": "uint64"
        },
        {
          "indexed": false,
          "name": "maxAmount",
          "type": "uint256"
        }
      ],
      "name": "KycVerified",
      "type": "event"
    },
    {
      "constant": false,
      "inputs": [
        {
          "name": "newRate",
          "type": "uint256"
        }
      ],
      "name": "setRate",
      "outputs": [],
      "payable": false,
      "stateMutability": "nonpayable",
      "type": "function"
    },
    {
      "constant": false,
      "inputs": [
        {
          "name": "investors",
          "type": "address[]"
        },
        {
          "name": "tokens",
          "type": "uint256[]"
        },
        {
          "name": "bonuses",
          "type": "uint256[]"
        }
      ],
      "name": "distributePresale",
      "outputs": [],
      "payable": false,
      "stateMutability": "nonpayable",
      "type": "function"
    },
    {
      "constant": true,
      "inputs": [],
      "name": "started",
      "outputs": [
        {
          "name": "",
          "type": "bool"
        }
      ],
      "payable": false,
      "stateMutability": "view",
      "type": "function"
    },
    {
      "constant": true,
      "inputs": [],
      "name": "ended",
      "outputs": [
        {
          "name": "",
          "type": "bool"
        }
      ],
      "payable": false,
      "stateMutability": "view",
      "type": "function"
    },
    {
      "constant": true,
      "inputs": [],
      "name": "startTime",
      "outputs": [
        {
          "name": "",
          "type": "uint256"
        }
      ],
      "payable": false,
      "stateMutability": "view",
      "type": "function"
    },
    {
      "constant": true,
      "inputs": [],
      "name": "endTime",
      "outputs": [
        {
          "name": "",
          "type": "uint256"
        }
      ],
      "payable": false,
      "stateMutability": "view",
      "type": "function"
    },
    {
      "constant": true,
      "inputs": [],
      "name": "totalTokens",
      "outputs": [
        {
          "name": "",
          "type": "uint256"
        }
      ],
      "payable": false,
      "stateMutability": "view",
      "type": "function"
    },
    {
      "constant": true,
      "inputs": [],
      "name": "remainingTokens",
      "outputs": [
        {
          "name": "",
          "type": "uint256"
        }
      ],
      "payable": false,
      "stateMutability": "view",
      "type": "function"
    },
    {
      "constant": true,
      "inputs": [],
      "name": "price",
      "outputs": [
        {
          "name": "",
          "type": "uint256"
        }
      ],
      "payable": false,
      "stateMutability": "view",
      "type": "function"
    },
    {
      "constant": false,
      "inputs": [],
      "name": "finalize",
      "outputs": [],
      "payable": false,
      "stateMutability": "nonpayable",
      "type": "function"
    }
  ],
  "bytecode": "0x60806040526b019d971e4fe8401e7400000060035560006004556a3551ef9a177af4478000006005556000600e60146101000a81548160ff0219169083151502179055503480156200005057600080fd5b5060405162002753380380620027538339810180604052810190808051906020019092919080519060200190929190805190602001909291908051906020019092919080519060200190929190805190602001909291908051906020019092919080519060200190929190805182019291905050508060008090505b8151811015620001535760016000808484815181101515620000ea57fe5b9060200190602002015173ffffffffffffffffffffffffffffffffffffffff1673ffffffffffffffffffffffffffffffffffffffff16815260200190815260200160002060006101000a81548160ff0219169083151502179055508080600101915050620000cc565b505033600260006101000a81548173ffffffffffffffffffffffffffffffffffffffff021916908373ffffffffffffffffffffffffffffffffffffffff160217905550600073ffffffffffffffffffffffffffffffffffffffff168973ffffffffffffffffffffffffffffffffffffffff1614151515620001d357600080fd5b6a304090517f1fe9cd3400006a69390f3c5d8531254c00006a44ee8508b1231e863400006a3551ef9a177af44780000060006b019d971e4fe8401e7400000001010101018973ffffffffffffffffffffffffffffffffffffffff1663355274ea6040518163ffffffff167c0100000000000000000000000000000000000000000000000000000000028152600401602060405180830381600087803b1580156200027c57600080fd5b505af115801562000291573d6000803e3d6000fd5b505050506040513d6020811015620002a857600080fd5b8101908080519060200190929190505050141515620002c657600080fd5b600088111515620002d657600080fd5b4287118015620002e557508686115b1515620002f157600080fd5b600073ffffffffffffffffffffffffffffffffffffffff168573ffffffffffffffffffffffffffffffffffffffff16141515156200032e57600080fd5b600073ffffffffffffffffffffffffffffffffffffffff168473ffffffffffffffffffffffffffffffffffffffff1614158015620003995750600073ffffffffffffffffffffffffffffffffffffffff168373ffffffffffffffffffffffffffffffffffffffff1614155b8015620003d35750600073ffffffffffffffffffffffffffffffffffffffff168273ffffffffffffffffffffffffffffffffffffffff1614155b1515620003df57600080fd5b6002815110151515620003f157600080fd5b88600960006101000a81548173ffffffffffffffffffffffffffffffffffffffff021916908373ffffffffffffffffffffffffffffffffffffffff16021790555087600a8190555086600b8190555085600c8190555084600d60006101000a81548173ffffffffffffffffffffffffffffffffffffffff021916908373ffffffffffffffffffffffffffffffffffffffff16021790555083600660006101000a81548173ffffffffffffffffffffffffffffffffffffffff021916908373ffffffffffffffffffffffffffffffffffffffff16021790555082600760006101000a81548173ffffffffffffffffffffffffffffffffffffffff021916908373ffffffffffffffffffffffffffffffffffffffff16021790555081600860006101000a81548173ffffffffffffffffffffffffffffffffffffffff021916908373ffffffffffffffffffffffffffffffffffffffff1602179055508060008151811015156200055b57fe5b90602001906020020151600e60006101000a81548173ffffffffffffffffffffffffffffffffffffffff021916908373ffffffffffffffffffffffffffffffffffffffff16021790555050505050505050505061219580620005be6000396000f3006080604052600436106101b7576000357c0100000000000000000000000000000000000000000000000000000000900463ffffffff1680630367e0e5146101c95780630570d568146102b557806312fa6feb146103105780631ec32d151461033f5780631f2698ab146103965780632c4e722e146103c557806330ba2d4d146103f05780633197cbb61461044757806334fcf437146104725780634b6753bc1461049f5780634b9304c3146104ca5780634bb278f3146104f5578063521eb2731461050c57806359927044146105635780636b252b47146105ba5780636e7794811461061157806378e979251461063c5780637e1c0c09146106675780638d4e4083146106925780638da5cb5b146106c1578063982a96e3146107185780639a359d8e14610743578063a035b1fe1461078e578063a460bd6c146107b9578063add3549a146107e4578063ae4578351461080f578063b2aa8291146108a4578063b7a8807c146108cf578063bd94fafc146108fa578063bf58390314610925578063cd4d4b4614610950578063dee4b2461461097b578063e06fc6d4146109f0578063f2fde38b14610a1b578063fc0c546a14610a5e575b3480156101c357600080fd5b50600080fd5b3480156101d557600080fd5b506102b3600480360381019080803590602001908201803590602001908080602002602001604051908101604052809392919081815260200183836020028082843782019150505050505091929192908035906020019082018035906020019080806020026020016040519081016040528093929190818152602001838360200280828437820191505050505050919291929080359060200190820180359060200190808060200260200160405190810160405280939291908181526020018383602002808284378201915050505050509192919290505050610ab5565b005b3480156102c157600080fd5b506102f6600480360381019080803573ffffffffffffffffffffffffffffffffffffffff169060200190929190505050610d37565b604051808215151515815260200191505060405180910390f35b34801561031c57600080fd5b50610325610d57565b604051808215151515815260200191505060405180910390f35b34801561034b57600080fd5b50610354610d70565b604051808273ffffffffffffffffffffffffffffffffffffffff1673ffffffffffffffffffffffffffffffffffffffff16815260200191505060405180910390f35b3480156103a257600080fd5b506103ab610d96565b604051808215151515815260200191505060405180910390f35b3480156103d157600080fd5b506103da610da2565b6040518082815260200191505060405180910390f35b3480156103fc57600080fd5b50610405610da8565b604051808273ffffffffffffffffffffffffffffffffffffffff1673ffffffffffffffffffffffffffffffffffffffff16815260200191505060405180910390f35b34801561045357600080fd5b5061045c610dce565b6040518082815260200191505060405180910390f35b34801561047e57600080fd5b5061049d60048036038101908080359060200190929190505050610dd8565b005b3480156104ab57600080fd5b506104b4610e90565b6040518082815260200191505060405180910390f35b3480156104d657600080fd5b506104df610e96565b6040518082815260200191505060405180910390f35b34801561050157600080fd5b5061050a610ea5565b005b34801561051857600080fd5b50610521611699565b604051808273ffffffffffffffffffffffffffffffffffffffff1673ffffffffffffffffffffffffffffffffffffffff16815260200191505060405180910390f35b34801561056f57600080fd5b506105786116bf565b604051808273ffffffffffffffffffffffffffffffffffffffff1673ffffffffffffffffffffffffffffffffffffffff16815260200191505060405180910390f35b3480156105c657600080fd5b506105cf6116e5565b604051808273ffffffffffffffffffffffffffffffffffffffff1673ffffffffffffffffffffffffffffffffffffffff16815260200191505060405180910390f35b34801561061d57600080fd5b5061062661170b565b6040518082815260200191505060405180910390f35b34801561064857600080fd5b5061065161171a565b6040518082815260200191505060405180910390f35b34801561067357600080fd5b5061067c611724565b6040518082815260200191505060405180910390f35b34801561069e57600080fd5b506106a7611738565b604051808215151515815260200191505060405180910390f35b3480156106cd57600080fd5b506106d661174b565b604051808273ffffffffffffffffffffffffffffffffffffffff1673ffffffffffffffffffffffffffffffffffffffff16815260200191505060405180910390f35b34801561072457600080fd5b5061072d611771565b6040518082815260200191505060405180910390f35b34801561074f57600080fd5b50610778600480360381019080803567ffffffffffffffff169060200190929190505050611777565b6040518082815260200191505060405180910390f35b34801561079a57600080fd5b506107a361178f565b6040518082815260200191505060405180910390f35b3480156107c557600080fd5b506107ce611799565b6040518082815260200191505060405180910390f35b3480156107f057600080fd5b506107f961179f565b6040518082815260200191505060405180910390f35b61088a600480360381019080803573ffffffffffffffffffffffffffffffffffffffff169060200190929190803567ffffffffffffffff16906020019092919080359060200190929190803560ff169060200190929190803560001916906020019092919080356000191690602001909291905050506117ae565b604051808215151515815260200191505060405180910390f35b3480156108b057600080fd5b506108b96117de565b6040518082815260200191505060405180910390f35b3480156108db57600080fd5b506108e46117ee565b6040518082815260200191505060405180910390f35b34801561090657600080fd5b5061090f6117f4565b6040518082815260200191505060405180910390f35b34801561093157600080fd5b5061093a6117f9565b6040518082815260200191505060405180910390f35b34801561095c57600080fd5b50610965611803565b6040518082815260200191505060405180910390f35b6109d6600480360381019080803567ffffffffffffffff16906020019092919080359060200190929190803560ff16906020019092919080356000191690602001909291908035600019169060200190929190505050611812565b604051808215151515815260200191505060405180910390f35b3480156109fc57600080fd5b50610a0561182d565b6040518082815260200191505060405180910390f35b348015610a2757600080fd5b50610a5c600480360381019080803573ffffffffffffffffffffffffffffffffffffffff169060200190929190505050611833565b005b348015610a6a57600080fd5b50610a7361198b565b604051808273ffffffffffffffffffffffffffffffffffffffff1673ffffffffffffffffffffffffffffffffffffffff16815260200191505060405180910390f35b6000600260009054906101000a900473ffffffffffffffffffffffffffffffffffffffff1673ffffffffffffffffffffffffffffffffffffffff163373ffffffffffffffffffffffffffffffffffffffff16141515610b1357600080fd5b610b1b610d57565b8015610b345750600e60149054906101000a900460ff16155b1515610b3f57600080fd5b82518451148015610b51575082518251145b1515610b5c57600080fd5b600090505b8351811015610d3157610b968382815181101515610b7b57fe5b906020019060200201516004546119b190919063ffffffff16565b600481905550610bc88282815181101515610bad57fe5b906020019060200201516005546119b190919063ffffffff16565b600581905550600960009054906101000a900473ffffffffffffffffffffffffffffffffffffffff1673ffffffffffffffffffffffffffffffffffffffff166340c10f198583815181101515610c1a57fe5b90602001906020020151610c658585815181101515610c3557fe5b906020019060200201518786815181101515610c4d57fe5b906020019060200201516119ca90919063ffffffff16565b6040518363ffffffff167c0100000000000000000000000000000000000000000000000000000000028152600401808373ffffffffffffffffffffffffffffffffffffffff1673ffffffffffffffffffffffffffffffffffffffff16815260200182815260200192505050602060405180830381600087803b158015610cea57600080fd5b505af1158015610cfe573d6000803e3d6000fd5b505050506040513d6020811015610d1457600080fd5b810190808051906020019092919050505050806001019050610b61565b50505050565b60006020528060005260406000206000915054906101000a900460ff1681565b6000600c54421180610d6b57506000600354145b905090565b600760009054906101000a900473ffffffffffffffffffffffffffffffffffffffff1681565b6000600b544211905090565b600a5481565b600e60009054906101000a900473ffffffffffffffffffffffffffffffffffffffff1681565b6000600c54905090565b600260009054906101000a900473ffffffffffffffffffffffffffffffffffffffff1673ffffffffffffffffffffffffffffffffffffffff163373ffffffffffffffffffffffffffffffffffffffff16141515610e3457600080fd5b600081111515610e4357600080fd5b600a5481141515610e8d5780600a819055507f595a30f13a69b616c4d568e2a2b7875fdfe86e4300a049953c76ee278f8f3f10816040518082815260200191505060405180910390a15b50565b600c5481565b6a69390f3c5d8531254c000081565b600260009054906101000a900473ffffffffffffffffffffffffffffffffffffffff1673ffffffffffffffffffffffffffffffffffffffff163373ffffffffffffffffffffffffffffffffffffffff16141515610f0157600080fd5b610f09610d57565b8015610f225750600e60149054906101000a900460ff16155b1515610f2d57600080fd5b6000600454141515610f3e57600080fd5b600960009054906101000a900473ffffffffffffffffffffffffffffffffffffffff1673ffffffffffffffffffffffffffffffffffffffff166340c10f19600660009054906101000a900473ffffffffffffffffffffffffffffffffffffffff166a44ee8508b1231e863400006040518363ffffffff167c0100000000000000000000000000000000000000000000000000000000028152600401808373ffffffffffffffffffffffffffffffffffffffff1673ffffffffffffffffffffffffffffffffffffffff16815260200182815260200192505050602060405180830381600087803b15801561103057600080fd5b505af1158015611044573d6000803e3d6000fd5b505050506040513d602081101561105a57600080fd5b810190808051906020019092919050505050600960009054906101000a900473ffffffffffffffffffffffffffffffffffffffff1673ffffffffffffffffffffffffffffffffffffffff166340c10f19600760009054906101000a900473ffffffffffffffffffffffffffffffffffffffff166a69390f3c5d8531254c00006040518363ffffffff167c0100000000000000000000000000000000000000000000000000000000028152600401808373ffffffffffffffffffffffffffffffffffffffff1673ffffffffffffffffffffffffffffffffffffffff16815260200182815260200192505050602060405180830381600087803b15801561115e57600080fd5b505af1158015611172573d6000803e3d6000fd5b505050506040513d602081101561118857600080fd5b810190808051906020019092919050505050600960009054906101000a900473ffffffffffffffffffffffffffffffffffffffff1673ffffffffffffffffffffffffffffffffffffffff166340c10f19600860009054906101000a900473ffffffffffffffffffffffffffffffffffffffff166a304090517f1fe9cd3400006040518363ffffffff167c0100000000000000000000000000000000000000000000000000000000028152600401808373ffffffffffffffffffffffffffffffffffffffff1673ffffffffffffffffffffffffffffffffffffffff16815260200182815260200192505050602060405180830381600087803b15801561128c57600080fd5b505af11580156112a0573d6000803e3d6000fd5b505050506040513d60208110156112b657600080fd5b810190808051906020019092919050505050600060055411156113f957600960009054906101000a900473ffffffffffffffffffffffffffffffffffffffff1673ffffffffffffffffffffffffffffffffffffffff166340c10f19600760009054906101000a900473ffffffffffffffffffffffffffffffffffffffff166005546040518363ffffffff167c0100000000000000000000000000000000000000000000000000000000028152600401808373ffffffffffffffffffffffffffffffffffffffff1673ffffffffffffffffffffffffffffffffffffffff16815260200182815260200192505050602060405180830381600087803b1580156113bc57600080fd5b505af11580156113d0573d6000803e3d6000fd5b505050506040513d60208110156113e657600080fd5b8101908080519060200190929190505050505b600960009054906101000a900473ffffffffffffffffffffffffffffffffffffffff1673ffffffffffffffffffffffffffffffffffffffff16637d64bcb46040518163ffffffff167c0100000000000000000000000000000000000000000000000000000000028152600401602060405180830381600087803b15801561147f57600080fd5b505af1158015611493573d6000803e3d6000fd5b505050506040513d60208110156114a957600080fd5b810190808051906020019092919050505050600960009054906101000a900473ffffffffffffffffffffffffffffffffffffffff1673ffffffffffffffffffffffffffffffffffffffff16633f4ba83a6040518163ffffffff167c0100000000000000000000000000000000000000000000000000000000028152600401600060405180830381600087803b15801561154157600080fd5b505af1158015611555573d6000803e3d6000fd5b50505050600960009054906101000a900473ffffffffffffffffffffffffffffffffffffffff1673ffffffffffffffffffffffffffffffffffffffff1663f2fde38b600260009054906101000a900473ffffffffffffffffffffffffffffffffffffffff166040518263ffffffff167c0100000000000000000000000000000000000000000000000000000000028152600401808273ffffffffffffffffffffffffffffffffffffffff1673ffffffffffffffffffffffffffffffffffffffff168152602001915050600060405180830381600087803b15801561163857600080fd5b505af115801561164c573d6000803e3d6000fd5b505050506001600e60146101000a81548160ff0219169083151502179055507f6823b073d48d6e3a7d385eeb601452d680e74bb46afe3255a7d778f3a9b1768160405160405180910390a1565b600d60009054906101000a900473ffffffffffffffffffffffffffffffffffffffff1681565b600660009054906101000a900473ffffffffffffffffffffffffffffffffffffffff1681565b600860009054906101000a900473ffffffffffffffffffffffffffffffffffffffff1681565b6a304090517f1fe9cd34000081565b6000600b54905090565b60006b019d971e4fe8401e74000000905090565b600e60149054906101000a900460ff1681565b600260009054906101000a900473ffffffffffffffffffffffffffffffffffffffff1681565b60055481565b60016020528060005260406000206000915090505481565b6000600a54905090565b60045481565b6a44ee8508b1231e8634000081565b60006117b9876119e6565b15156117c457600080fd5b6117d2878787878787611a1e565b90509695505050505050565b6b019d971e4fe8401e7400000081565b600b5481565b600081565b6000600354905090565b6a3551ef9a177af44780000081565b6000611822338787878787611a1e565b905095945050505050565b60035481565b600260009054906101000a900473ffffffffffffffffffffffffffffffffffffffff1673ffffffffffffffffffffffffffffffffffffffff163373ffffffffffffffffffffffffffffffffffffffff1614151561188f57600080fd5b600073ffffffffffffffffffffffffffffffffffffffff168173ffffffffffffffffffffffffffffffffffffffff16141515156118cb57600080fd5b8073ffffffffffffffffffffffffffffffffffffffff16600260009054906101000a900473ffffffffffffffffffffffffffffffffffffffff1673ffffffffffffffffffffffffffffffffffffffff167f8be0079c531659141344cd1fd0a4f28419497f9722a3daafe3b4186f6b6457e060405160405180910390a380600260006101000a81548173ffffffffffffffffffffffffffffffffffffffff021916908373ffffffffffffffffffffffffffffffffffffffff16021790555050565b600960009054906101000a900473ffffffffffffffffffffffffffffffffffffffff1681565b60008282111515156119bf57fe5b818303905092915050565b600081830190508281101515156119dd57fe5b80905092915050565b60003373ffffffffffffffffffffffffffffffffffffffff168273ffffffffffffffffffffffffffffffffffffffff16149050919050565b6000806000806002308b8b8b60405180807f4569646f6f2069636f656e67696e6520617574686f72697a6174696f6e000000815250601d018573ffffffffffffffffffffffffffffffffffffffff1673ffffffffffffffffffffffffffffffffffffffff166c010000000000000000000000000281526014018473ffffffffffffffffffffffffffffffffffffffff1673ffffffffffffffffffffffffffffffffffffffff166c010000000000000000000000000281526014018367ffffffffffffffff1667ffffffffffffffff1678010000000000000000000000000000000000000000000000000281526008018281526020019450505050506020604051808303816000865af1158015611b38573d6000803e3d6000fd5b5050506040513d6020811015611b4d57600080fd5b81019080805190602001909291905050509250600183888888604051600081526020016040526040518085600019166000191681526020018460ff1660ff1681526020018360001916600019168152602001826000191660001916815260200194505050505060206040516020810390808403906000865af1158015611bd7573d6000803e3d6000fd5b5050506020604051035191506000808373ffffffffffffffffffffffffffffffffffffffff1673ffffffffffffffffffffffffffffffffffffffff16815260200190815260200160002060009054906101000a900460ff161515611c3a57600080fd5b611c7434600160008c67ffffffffffffffff1667ffffffffffffffff168152602001908152602001600020546119ca90919063ffffffff16565b9050878111151515611c8557600080fd5b80600160008b67ffffffffffffffff1667ffffffffffffffff168152602001908152602001600020819055508173ffffffffffffffffffffffffffffffffffffffff167f74e336db80b339721548db3209451cf01bd48e4a996e1bcea7f1a2abf8b060708b8b8b604051808473ffffffffffffffffffffffffffffffffffffffff1673ffffffffffffffffffffffffffffffffffffffff1681526020018367ffffffffffffffff1667ffffffffffffffff168152602001828152602001935050505060405180910390a2611d598a83611d68565b93505050509695505050505050565b600080600080600080611d79610d96565b8015611d8a5750611d88610d57565b155b1515611d9557600080fd5b34945060009350611db1600a548661211b90919063ffffffff16565b925060009150600354831115611df857611dd8600a5460035461215390919063ffffffff16565b9050611ded81866119b190919063ffffffff16565b935060035492508094505b600e60009054906101000a900473ffffffffffffffffffffffffffffffffffffffff1673ffffffffffffffffffffffffffffffffffffffff168773ffffffffffffffffffffffffffffffffffffffff161415611e6557611e6260148461215390919063ffffffff16565b91505b611e7a836003546119b190919063ffffffff16565b600381905550611e95826005546119b190919063ffffffff16565b600581905550600960009054906101000a900473ffffffffffffffffffffffffffffffffffffffff1673ffffffffffffffffffffffffffffffffffffffff166340c10f1989611eed85876119ca90919063ffffffff16565b6040518363ffffffff167c0100000000000000000000000000000000000000000000000000000000028152600401808373ffffffffffffffffffffffffffffffffffffffff1673ffffffffffffffffffffffffffffffffffffffff16815260200182815260200192505050602060405180830381600087803b158015611f7257600080fd5b505af1158015611f86573d6000803e3d6000fd5b505050506040513d6020811015611f9c57600080fd5b810190808051906020019092919050505050600d60009054906101000a900473ffffffffffffffffffffffffffffffffffffffff1673ffffffffffffffffffffffffffffffffffffffff166108fc869081150290604051600060405180830381858888f19350505050158015612016573d6000803e3d6000fd5b5060008411156120b6578773ffffffffffffffffffffffffffffffffffffffff166108fc859081150290604051600060405180830381858888f19350505050158015612066573d6000803e3d6000fd5b508773ffffffffffffffffffffffffffffffffffffffff167fb236930c71cd15ee3f158a04e5a4021718f5e63ce29f097e22bcafc70906a4c2856040518082815260200191505060405180910390a25b8773ffffffffffffffffffffffffffffffffffffffff167f3ceffd410054fdaed44f598ff5c1fb450658778e2241892da4aa646979dee6178685604051808381526020018281526020019250505060405180910390a260019550505050505092915050565b60008083141561212e576000905061214d565b818302905081838281151561213f57fe5b0414151561214957fe5b8090505b92915050565b6000818381151561216057fe5b049050929150505600a165627a7a72305820531ac37d6d162f90d816d9abae69d0947419a32eabe780e56797b9f027aabad80029",
  "source": "pragma solidity 0.4.23;\n\nimport \"./ORSToken.sol\";\nimport \"../eidoo-icoengine/contracts/ICOEngineInterface.sol\";\nimport \"../eidoo-icoengine/contracts/KYCBase.sol\";\nimport \"../zeppelin-solidity/contracts/math/SafeMath.sol\";\nimport \"../zeppelin-solidity/contracts/ownership/Ownable.sol\";\n\n\n/// @title ORSTokenSale\n/// @author Autogenerated from a Dia UML diagram\ncontract ORSTokenSale is KYCBase, ICOEngineInterface, Ownable {\n\n    using SafeMath for uint;\n\n    uint constant public MAINSALE_CAP = 500000000e18;   // 500,000,000 e18\n    uint constant public PRESALE_CAP = 0;               // TBD!\n    uint constant public BONUS_CAP = 64460000e18;       //  64,460,000 e18\n    uint constant public TEAM_CAP = 83333333e18;        //  83,333,333 e18\n    uint constant public COMPANY_CAP = 127206667e18;    // 127,206,667 e18\n    uint constant public ADVISORS_CAP = 58333333e18;    //  58,333,333 e18\n\n    uint public mainsaleRemaining = MAINSALE_CAP;\n    uint public presaleRemaining = PRESALE_CAP;\n    uint public bonusRemaining = BONUS_CAP;\n\n    address public teamWallet;\n    address public companyWallet;\n    address public advisorsWallet;\n\n    ORSToken public token;\n\n    uint public rate;  // integral token units (10^-18 tokens) per wei\n\n    uint public openingTime;\n    uint public closingTime;\n\n    address public wallet;\n\n    address public eidooSigner;\n\n    bool public isFinalized = false;\n\n    /// @dev Log entry on rate changed\n    /// @param newRate A positive number\n    event RateChanged(uint newRate);\n\n    /// @dev Log entry on token purchased\n    /// @param buyer An Ethereum address\n    /// @param value A positive number\n    /// @param tokens A positive number\n    event TokenPurchased(address indexed buyer, uint value, uint tokens);\n\n    /// @dev Log entry on buyer refunded\n    /// @param buyer An Ethereum address\n    /// @param value A positive number\n    event BuyerRefunded(address indexed buyer, uint value);\n\n    /// @dev Log entry on finalized\n    event Finalized();\n\n    /// @dev Constructor\n    /// @param _token An ORSToken\n    /// @param _rate A positive number\n    /// @param _openingTime A positive number\n    /// @param _closingTime A positive number\n    /// @param _wallet An Ethereum address\n    /// @param _teamWallet An Ethereum address\n    /// @param _companyWallet An Ethereum address\n    /// @param _advisorsWallet An Ethereum address\n    /// @param _kycSigners A list where each entry is an Ethereum address\n    constructor(\n        ORSToken _token,\n        uint _rate,\n        uint _openingTime,\n        uint _closingTime,\n        address _wallet,\n        address _teamWallet,\n        address _companyWallet,\n        address _advisorsWallet,\n        address[] _kycSigners\n    )\n        public\n        KYCBase(_kycSigners)\n    {\n        require(_token != address(0x0));\n        require(_token.cap() == MAINSALE_CAP + PRESALE_CAP + BONUS_CAP + TEAM_CAP + COMPANY_CAP + ADVISORS_CAP);\n        require(_rate > 0);\n        require(_openingTime > now && _closingTime > _openingTime);\n        require(_wallet != address(0x0));\n        require(_teamWallet != address(0x0) && _companyWallet != address(0x0) && _advisorsWallet != address(0x0));\n        require(_kycSigners.length >= 2);\n\n        token = _token;\n        rate = _rate;\n        openingTime = _openingTime;\n        closingTime = _closingTime;\n        wallet = _wallet;\n        teamWallet = _teamWallet;\n        companyWallet = _companyWallet;\n        advisorsWallet = _advisorsWallet;\n\n        eidooSigner = _kycSigners[0];\n    }\n\n    /// @dev Set rate\n    /// @param newRate A positive number\n    function setRate(uint newRate) public onlyOwner {\n        require(newRate > 0);\n\n        if (newRate != rate) {\n            rate = newRate;\n\n            emit RateChanged(newRate);\n        }\n    }\n\n    /// @dev Distribute presale\n    /// @param investors A list where each entry is an Ethereum address\n    /// @param tokens A list where each entry is a positive number\n    /// @param bonuses A list where each entry is a positive number\n    function distributePresale(address[] investors, uint[] tokens, uint[] bonuses) public onlyOwner {\n        require(ended() && !isFinalized);\n        require(investors.length == tokens.length && bonuses.length == tokens.length);\n\n        for (uint i = 0; i < investors.length; ++i) {\n            presaleRemaining = presaleRemaining.sub(tokens[i]);\n            bonusRemaining = bonusRemaining.sub(bonuses[i]);\n\n            token.mint(investors[i], tokens[i].add(bonuses[i]));\n        }\n    }\n\n    /// @dev Started\n    /// @return True or false\n    function started() public view returns (bool) {\n        return now > openingTime;\n    }\n\n    /// @dev Ended\n    /// @return True or false\n    function ended() public view returns (bool) {\n        return now > closingTime || mainsaleRemaining == 0;\n    }\n\n    // time stamp of the starting time of the ico, must return 0 if it depends on the block number\n    /// @dev Start time\n    /// @return A positive number\n    function startTime() public view returns (uint) {\n        return openingTime;\n    }\n\n    // time stamp of the ending time of the ico, must retrun 0 if it depends on the block number\n    /// @dev End time\n    /// @return A positive number\n    function endTime() public view returns (uint) {\n        return closingTime;\n    }\n\n    // returns the total number of the tokens available for the sale, must not change when the ico is started\n    /// @dev Total tokens\n    /// @return A positive number\n    function totalTokens() public view returns (uint) {\n        return MAINSALE_CAP;\n    }\n\n    // returns the number of the tokens available for the ico. At the moment that the ico starts it must be\n    // equal to totalTokens(), then it will decrease. It is used to calculate the percentage of sold tokens as\n    // remainingTokens() / totalTokens()\n    /// @dev Remaining tokens\n    /// @return A positive number\n    function remainingTokens() public view returns (uint) {\n        return mainsaleRemaining;\n    }\n\n    // return the price as number of tokens released for each ether\n    /// @dev Price\n    /// @return A positive number\n    function price() public view returns (uint) {\n        return rate;\n    }\n\n    /// @dev Finalize\n    function finalize() public onlyOwner {\n        require(ended() && !isFinalized);\n        require(presaleRemaining == 0);\n\n        token.mint(teamWallet, TEAM_CAP);\n        token.mint(companyWallet, COMPANY_CAP);\n        token.mint(advisorsWallet, ADVISORS_CAP);\n\n        if (bonusRemaining > 0) {\n            token.mint(companyWallet, bonusRemaining);\n        }\n\n        token.finishMinting();\n        token.unpause();\n        token.transferOwnership(owner);\n\n        isFinalized = true;\n\n        emit Finalized();\n    }\n\n    /// @dev Release tokens to\n    /// @param buyer An Ethereum address\n    /// @param signer An Ethereum address\n    /// @return True or false\n    function releaseTokensTo(address buyer, address signer) internal returns (bool) {\n        require(started() && !ended());\n\n        uint value = msg.value;\n        uint refund = 0;\n\n        uint tokens = value.mul(rate);\n        uint bonus = 0;\n\n        if (tokens > mainsaleRemaining) {\n            uint valueOfRemaining = mainsaleRemaining.div(rate);\n\n            refund = value.sub(valueOfRemaining);\n            tokens = mainsaleRemaining;\n            value = valueOfRemaining;\n            // Note:\n            // To be 100% accurate the buyer should have received only the token amount that\n            // correspondents to valueOfRemaining, i.e. tokens = valueOfRemaining.mul(rate)...,\n            // because of mainsaleRemaining may not be a multiple of rate.\n            // Nevertheless, we deliver all mainsaleRemaining as the worth of these additional\n            // tokens (amount < rate) is less than a wei.\n        }\n\n        if (signer == eidooSigner) {\n            bonus = tokens.div(20);\n        }\n\n        mainsaleRemaining = mainsaleRemaining.sub(tokens);\n        bonusRemaining = bonusRemaining.sub(bonus);\n\n        token.mint(buyer, tokens.add(bonus));\n        wallet.transfer(value);\n        if (refund > 0) {\n            buyer.transfer(refund);\n\n            emit BuyerRefunded(buyer, refund);\n        }\n\n        emit TokenPurchased(buyer, value, tokens);\n\n        return true;\n    }\n\n}\n",
  "sourcePath": "/usr/home/gerard/Projekte/Solidity/ORS/ors-ico/contracts/ORSTokenSale.sol",
  "compiler": {
    "name": "solc",
    "version": "0.4.23+commit.124ca40d.Emscripten.clang"
  },
  "schemaVersion": "2.0.0",
  "updatedAt": "2018-05-04T15:17:38.295Z"
}